:020000040800F2
:1000000070060020290200083102000833020008AF
:10001000350200083702000839020008000000001D
:100020000000000000000000000000003B0200088B
:100030003D020008000000003F02000841020008E5
:10004000430200084302000843020008430200087C
:100050004302000843020008E502000859030008B3
:10006000CD030008410400084302000843020008D1
:10007000430200084302000843020008430200084C
:10008000430200084302000843020008430200083C
:10009000430200084302000843020008430200082C
:1000A000430200084302000843020008430200081C
:1000B000430200084302000843020008430200080C
:1000C00043020008430200084302000843020008FC
:1000D00043020008430200084302000843020008EC
:1000E00043020008430200084302000843020008DC
:1000F00043020008430200084302000843020008CC
:1001000043020008430200084302000843020008BB
:1001100043020008430200084302000843020008AB
:10012000430200084302000843020008430200089B
:10013000430200084302000843020008430200088B
:10014000430200084302000843020008430200087B
:10015000430200084302000843020008430200086B
:10016000430200084302000843020008430200085B
:100170004302000843020008430200080000000098
:10018000430200084302000800F002F800F03CF8C7
:100190000AA090E8000C82448344AAF10107DA45E2
:1001A00001D100F031F8AFF2090EBAE80F0013F0F8
:1001B000010F18BFFB1A43F001031847EC040000BD
:1001C0000C050000103A24BF78C878C1FAD852074D
:1001D00024BF30C830C144BF04680C6070470000C1
:1001E0000023002400250026103A28BF78C1FBD840
:1001F000520728BF30C148BF0B6070471FB500F0E1
:100200004DFA1FBD10B510BD00F031F81146FFF7D3
:10021000F5FF00F03DFA00F04FF803B4FFF7F2FFEE
:1002200003BC00F057F80000094880470948004720
:10023000FEE7FEE7FEE7FEE7FEE7FEE7FEE7FEE796
:10024000FEE7FEE704480549054A064B70470000F3
:10025000B504000889010008700000207006002025
:10026000700200207002002070477047704775468A
:1002700000F02CF8AE4605006946534620F0070012
:10028000854618B020B5FFF7DDFFBDE820404FF0F0
:1002900000064FF000074FF000084FF0000B21F070
:1002A0000701AC46ACE8C009ACE8C009ACE8C0093D
:1002B000ACE8C0098D46704710B50446AFF3008026
:1002C0002046BDE81040FFF7A8BF00000048704777
:1002D0000C00002001491820ABBEFEE726000200FA
:1002E000704700001748006840F001001549086099
:1002F0001548006800F0010088B10120134908701A
:100300001348007828B913480068401C1149086058
:1003100016E010480068401E0E49086010E00020FA
:100320000A4908700A48007828B90A480068401E3F
:100330000849086004E007480068401C0549086057
:1003400070470000143C01401008024001000020EA
:1003500000000020040000201748006840F0020060
:10036000154908601548006800F40060012810D1A4
:10037000134908701348007828B913480068401ED4
:100380001149086016E010480068401C0E490860DA
:1003900010E000200A4908700A48007828B90A4885
:1003A0000068401C0849086004E007480068401ED7
:1003B0000549086070470000143C014010080240E5
:1003C0000000002001000020040000201748006801
:1003D00040F00400154908601548006800F004006A
:1003E000012810D1134908701348007828B9134820
:1003F0000068401C1149086016E010480068401E63
:100400000E49086010E000200A4908700A48007888
:1004100028B90A480068401E0849086004E00748F7
:100420000068401C0549086070470000143C01400A
:1004300010080240030000200200002008000020F5
:100440001748006840F00800154908601548006822
:1004500000F00800012810D11349087013480078F3
:1004600028B913480068401E1149086016E010487A
:100470000068401C0E49086010E000200A4908701E
:100480000A48007828B90A480068401C08490860F2
:1004900004E007480068401E0549086070470000F6
:1004A000143C01401008024002000020030000201C
:1004B000080000201448006840F4700012490860E9
:1004C0001248006840F001001049086000200F4900
:1004D000083108600D4800680D4908400B49086064
:1004E0000C48091D0860081F006820F48020091FBF
:1004F0000860002005490C3108604FF00060024997
:10050000803908607047000088ED00E00038024044
:10051000FFFFF6FE10300024002809DB00F01F0268
:10052000012191404209920002F1E022C2F800113B
:10053000704700002C48006840F480302A49086069
:10054000081D0068091D0860084600680860084624
:10055000006840F01000086008460068086008461F
:10056000006840F4485008600846006840F4800085
:1005700008600846006808600846006840F080602F
:100580000860081D0068091D0860084600680860CA
:100590000846006840F0800008600846006808606F
:1005A0000846006840F4805008600F48006840F03A
:1005B00080700D49086000BF0B48006800F00070B3
:1005C0000028F9D008480830006840F002000649C9
:1005D0000831086000BF04480830006800F00800D7
:1005E0000028F8D0704700000038024010B52448B9
:1005F000006840F004002249086021481430006877
:1006000040F480401E49143108601E4800681D49AE
:1006100008601C480830006840F0FF0019490831A4
:100620000860081D006840F05500091D0860164864
:10063000006842F222210843134908601348006809
:1006400040F00F001149086010480830006840F081
:100650000F000E4908310860081D006840F00F00C7
:10066000091D08600620FFF757FF0720FFF754FF1A
:100670000820FFF751FF0920FFF74EFF10BD0000D3
:10068000303802400008024008380140003C014078
:10069000FFF750FFFFF7AAFF00BFFEE74FF04070E3
:1006A000E1EE100A70470000C806000800000020B4
:1006B0000C000000C4010008D40600080C00002053
:1006C00064060000E00100080000000000000000D7
:0406D0000000000026
:040000050800018965
:00000001FF
