:020000040800F2
:10000000800600202902000831020008330200089F
:10001000350200083702000839020008000000001D
:100020000000000000000000000000003B0200088B
:100030003D020008000000003F02000841020008E5
:10004000430200084302000843020008430200087C
:10005000430200084302000843020008430200086C
:10006000430200084302000843020008430200085C
:10007000430200084302000843020008430200084C
:10008000430200084302000843020008430200083C
:10009000430200084302000843020008430200082C
:1000A000430200084302000843020008430200081C
:1000B000430200084302000843020008430200080C
:1000C00043020008430200084302000843020008FC
:1000D00043020008490300084302000843020008E5
:1000E00043020008430200084302000843020008DC
:1000F00043020008430200084302000843020008CC
:1001000043020008430200084302000843020008BB
:1001100043020008430200084302000843020008AB
:10012000430200084302000843020008430200089B
:10013000430200084302000843020008430200088B
:10014000430200084302000843020008430200087B
:10015000430200084302000843020008430200086B
:10016000430200084302000843020008430200085B
:100170004302000843020008430200080000000098
:10018000430200084302000800F002F800F03CF8C7
:100190000AA090E8000C82448344AAF10107DA45E2
:1001A00001D100F031F8AFF2090EBAE80F0013F0F8
:1001B000010F18BFFB1A43F001031847B0030000FA
:1001C000D0030000103A24BF78C878C1FAD852078B
:1001D00024BF30C830C144BF04680C6070470000C1
:1001E0000023002400250026103A28BF78C1FBD840
:1001F000520728BF30C148BF0B6070471FB500F0E1
:10020000AFF91FBD10B510BD00F031F81146FFF772
:10021000F5FF00F051F900F04FF803B4FFF7F2FFDB
:1002200003BC00F057F80000094880470948004720
:10023000FEE7FEE7FEE7FEE7FEE7FEE7FEE7FEE796
:10024000FEE7FEE704480549054A064B70470000F3
:10025000E5020008890100088000002080060020D7
:10026000800200208002002070477047704775466A
:1002700000F02CF8AE4605006946534620F0070012
:10028000854618B020B5FFF7DDFFBDE820404FF0F0
:1002900000064FF000074FF000084FF0000B21F070
:1002A0000701AC46ACE8C009ACE8C009ACE8C0093D
:1002B000ACE8C0098D46704710B50446AFF3008026
:1002C0002046BDE81040FFF7A8BF00000048704777
:1002D0001C00002001491820ABBEFEE726000200EA
:1002E000704700001448006840F47000124908602C
:1002F0001248006840F001001049086000200F49D2
:10030000083108600D4800680D4908400B49086035
:100310000C48091D0860081F006820F48020091F90
:100320000860002005490C3108604FF00060024968
:10033000803908607047000088ED00E00038024016
:10034000FFFFF6FE1030002400B500F0D5F801499B
:10035000086000BD100000203448006840F4803080
:1003600032490860081D0068091D086008460068D9
:1003700008600846006840F0080008600846006809
:1003800008600846006840F40050086008460068AD
:1003900040F480000860084600680860084600686D
:1003A00040F080600860081D0068091D086008466C
:1003B000006808600846006840F080000860084651
:1003C000006808600846006808600846006840F455
:1003D000004008600846006840F4805008601348F8
:1003E000006840F080701149086000BF0F48006845
:1003F00000F000700028F9D00C480830006840F088
:1004000002000A490831086000BF08480830006847
:1004100000F008000028F8D004484430006840F498
:1004200080400249443108607047000000380240B3
:100430000A48006840F00800084908600848006859
:1004400040F0AA400649086005480C30006840F0BA
:100450002A4003490C3108607047000030380240E0
:10046000000C02401248006840F01000104908607B
:100470000F481438006840F001000D491439086035
:100480000C48006840F400100A490860084680687B
:1004900040F4801088600846C06840F40010C860CE
:1004A0000846406A40F4E06102484162704700003B
:1004B0004438024000000240FFF74EFFFFF7B8FF4C
:1004C000FFF7D0FF00F02AF810E009480068322852
:1004D00008DB07480068C82804DA4FF47040054973
:1004E000086003E04FF0704002490860EDE700004B
:1004F00010000020180C024000BF0648006800F001
:1005000020000028F9D003484068034908700846D5
:100510000078704700100140080000200F48C068B4
:1005200040F400500D49C8600846806840F045001E
:1005300088600846C06840F02400C8602520002874
:1005400009DB00F01F02012191404209920002F1F3
:10055000E022C2F8001100BF704700000010014007
:100560004FF04070E1EE100A704700008C05000863
:10057000000000201C000000C4010008A8050008BD
:100580001C00002064060000E001000800000000DC
:10059000000000000000000000000000000000005B
:0805A000000000000000000053
:040000050800018965
:00000001FF
