:020000040800F2
:1000000070060020290200083102000833020008AF
:10001000350200083702000839020008000000001D
:100020000000000000000000000000003B0200088B
:100030003D020008000000003F02000841020008E5
:10004000430200084302000843020008430200087C
:10005000430200084302000843020008430200086C
:10006000430200084302000843020008430200085C
:10007000430200084302000843020008430200084C
:10008000430200084302000843020008430200083C
:10009000430200084302000843020008430200082C
:1000A000430200084302000843020008430200081C
:1000B000430200084302000843020008430200080C
:1000C00043020008430200084302000843020008FC
:1000D000E50200084302000843020008430200084A
:1000E00043020008430200084302000843020008DC
:1000F00043020008430200084302000843020008CC
:1001000043020008430200084302000843020008BB
:1001100043020008430200084302000843020008AB
:10012000430200084302000843020008430200089B
:10013000430200084302000843020008430200088B
:10014000430200084302000843020008430200087B
:10015000430200084302000843020008430200086B
:10016000430200084302000843020008430200085B
:100170004302000843020008430200080000000098
:10018000430200084302000800F002F800F03CF8C7
:100190000AA090E8000C82448344AAF10107DA45E2
:1001A00001D100F031F8AFF2090EBAE80F0013F0F8
:1001B000010F18BFFB1A43F001031847F4020000B7
:1001C00014030000103A24BF78C878C1FAD8520747
:1001D00024BF30C830C144BF04680C6070470000C1
:1001E0000023002400250026103A28BF78C1FBD840
:1001F000520728BF30C148BF0B6070471FB500F0E1
:1002000051F91FBD10B510BD00F031F81146FFF7D0
:10021000F5FF00F00FF900F04FF803B4FFF7F2FF1D
:1002200003BC00F057F80000094880470948004720
:10023000FEE7FEE7FEE7FEE7FEE7FEE7FEE7FEE796
:10024000FEE7FEE704480549054A064B70470000F3
:1002500009030008890100087000002070060020D2
:10026000700200207002002070477047704775468A
:1002700000F02CF8AE4605006946534620F0070012
:10028000854618B020B5FFF7DDFFBDE820404FF0F0
:1002900000064FF000074FF000084FF0000B21F070
:1002A0000701AC46ACE8C009ACE8C009ACE8C0093D
:1002B000ACE8C0098D46704710B50446AFF3008026
:1002C0002046BDE81040FFF7A8BF00000048704777
:1002D0001000002001491820ABBEFEE726000200F6
:1002E0007047000000BF0648006800F002000028C8
:1002F000F9D0044800780249091D086070470000E1
:10030000083800400C0000201448006840F47000D9
:10031000124908601248006840F001001049086066
:1003200000200F49083108600D4800680D49084059
:100330000B4908600C48091D0860081F006820F47C
:100340008020091F0860002005490C3108604FF02B
:1003500000600249803908607047000088ED00E0C5
:1003600000380240FFFFF6FE103000242E480068DF
:1003700040F006002C4908602B481030006840F41B
:1003800080402949103108602848006840F090708A
:10039000264908602648006840F0A000244908600B
:1003A0002248001D00682149091D08602048001DE1
:1003B00000681F49091D08601C480830006840F0AB
:1003C00088701A490831086019480830006840F000
:1003D000500017490831086014480C30006840F09C
:1003E000087012490C31086011480C30006840F068
:1003F00050000F490C3108600D482030006840F46F
:10040000AA400B49203108600848406A40F4A061C6
:100410000648416205481430006820F480500349C2
:100420001431086070470000303802400004024078
:1004300000080240FFF79AFF00F010F8242000287F
:1004400009DB00F01F02012191404209920002F1F4
:10045000E022C2F8001100BF00BFFEE710480068AC
:1004600040F030000E4908600846006840F4404003
:1004700008600846006840F440700860081D006885
:1004800040F08000091D0860081F006840F004006B
:10049000091F08600846006840F040000860704787
:1004A000003800404FF04070E1EE100A7047000045
:1004B000D00400080000002010000000C401000863
:1004C000E00400081000002060060000E0010008C1
:1004D0006400000000000000000000005200000066
:040000050800018965
:00000001FF
