:020000040800F2
:1000000070060020290200083102000833020008AF
:10001000350200083702000839020008000000001D
:100020000000000000000000000000003B0200088B
:100030003D020008000000003F02000841020008E5
:10004000430200084302000843020008430200087C
:10005000430200084302000843020008430200086C
:10006000430200084302000843020008430200085C
:10007000430200084302000843020008430200084C
:10008000430200084302000843020008430200083C
:10009000430200084302000843020008430200082C
:1000A000430200084302000843020008430200081C
:1000B000430200084302000843020008430200080C
:1000C00043020008430200084302000843020008FC
:1000D00043020008430200084302000843020008EC
:1000E00043020008430200084302000843020008DC
:1000F00043020008430200084302000843020008CC
:1001000043020008430200084302000843020008BB
:1001100043020008430200084302000843020008AB
:10012000430200084302000843020008430200089B
:10013000430200084302000843020008430200088B
:10014000430200084302000843020008430200087B
:10015000430200084302000843020008430200086B
:10016000430200084302000843020008430200085B
:100170004302000843020008430200080000000098
:10018000430200084302000800F002F800F03CF8C7
:100190000AA090E8000C82448344AAF10107DA45E2
:1001A00001D100F031F8AFF2090EBAE80F0013F0F8
:1001B000010F18BFFB1A43F0010318474802000063
:1001C00068020000103A24BF78C878C1FAD85207F4
:1001D00024BF30C830C144BF04680C6070470000C1
:1001E0000023002400250026103A28BF78C1FBD840
:1001F000520728BF30C148BF0B6070471FB500F0E1
:10020000FBF81FBD10B510BD00F031F81146FFF727
:10021000F5FF00F0DFF800F04FF803B4FFF7F2FF4E
:1002200003BC00F057F80000094880470948004720
:10023000FEE7FEE7FEE7FEE7FEE7FEE7FEE7FEE796
:10024000FEE7FEE704480549054A064B70470000F3
:10025000E5020008890100087000002070060020F7
:10026000700200207002002070477047704775468A
:1002700000F02CF8AE4605006946534620F0070012
:10028000854618B020B5FFF7DDFFBDE820404FF0F0
:1002900000064FF000074FF000084FF0000B21F070
:1002A0000701AC46ACE8C009ACE8C009ACE8C0093D
:1002B000ACE8C0098D46704710B50446AFF3008026
:1002C0002046BDE81040FFF7A8BF00000048704777
:1002D0000C00002001491820ABBEFEE726000200FA
:1002E000704700001448006840F47000124908602C
:1002F0001248006840F001001049086000200F49D2
:10030000083108600D4800680D4908400B49086035
:100310000C48091D0860081F006820F48020091F90
:100320000860002005490C3108604FF00060024968
:10033000803908607047000088ED00E00038024016
:10034000FFFFF6FE103000242048006840F0010056
:100350001E4908601D481038006840F001001B4924
:10036000103908601A48006840F00A00184908600F
:100370000846406848600846806840F00F00886082
:100380000846C06840F00500C8600846006A40F0B2
:10039000110008624FF0FF304903C86208468068C8
:1003A00040F0030088600846806940F001008861E1
:1003B0000846806940F4807088610846006A0862D7
:1003C0000846006840F0010008607047403802406D
:1003D00000000240FFF7B8FF0BE04FF08040406A9A
:1003E00004490860002000E0401C42F2107188427D
:1003F000FADDF2E7040000204FF04070E1EE100A51
:100400007047000024040008000000200C000000D9
:10041000C4010008300400080C000020640600003D
:10042000E0010008000000000000000000000000E3
:040000050800018965
:00000001FF
