:020000040800F2
:1000000068060020290200083102000833020008B7
:10001000350200083702000839020008000000001D
:100020000000000000000000000000003B0200088B
:100030003D020008000000003F02000841020008E5
:10004000430200084302000843020008430200087C
:10005000430200084302000843020008430200086C
:10006000430200084302000843020008430200085C
:10007000430200084302000843020008430200084C
:10008000430200084302000843020008430200083C
:10009000430200084302000843020008430200082C
:1000A000430200084302000843020008430200081C
:1000B000430200084302000843020008430200080C
:1000C00043020008430200084302000843020008FC
:1000D00043020008430200084302000843020008EC
:1000E00043020008430200084302000843020008DC
:1000F00043020008430200084302000843020008CC
:1001000043020008430200084302000843020008BB
:1001100043020008430200084302000843020008AB
:10012000430200084302000843020008430200089B
:10013000430200084302000843020008430200088B
:10014000430200084302000843020008430200087B
:10015000430200084302000843020008430200086B
:10016000430200084302000843020008430200085B
:100170004302000843020008430200080000000098
:10018000430200084302000800F002F800F03CF8C7
:100190000AA090E8000C82448344AAF10107DA45E2
:1001A00001D100F031F8AFF2090EBAE80F0013F0F8
:1001B000010F18BFFB1A43F0010318478802000023
:1001C000A8020000103A24BF78C878C1FAD85207B4
:1001D00024BF30C830C144BF04680C6070470000C1
:1001E0000023002400250026103A28BF78C1FBD840
:1001F000520728BF30C148BF0B6070471FB500F0E1
:100200001BF91FBD10B510BD00F031F81146FFF706
:10021000F5FF00F0DDF800F04FF803B4FFF7F2FF50
:1002200003BC00F057F80000094880470948004720
:10023000FEE7FEE7FEE7FEE7FEE7FEE7FEE7FEE796
:10024000FEE7FEE704480549054A064B70470000F3
:10025000E502000889010008680000206806002007
:10026000680200206802002070477047704775469A
:1002700000F02CF8AE4605006946534620F0070012
:10028000854618B020B5FFF7DDFFBDE820404FF0F0
:1002900000064FF000074FF000084FF0000B21F070
:1002A0000701AC46ACE8C009ACE8C009ACE8C0093D
:1002B000ACE8C0098D46704710B50446AFF3008026
:1002C0002046BDE81040FFF7A8BF00000048704777
:1002D0000800002001491820ABBEFEE726000200FE
:1002E000704700001448006840F47000124908602C
:1002F0001248006840F001001049086000200F49D2
:10030000083108600D4800680D4908400B49086035
:100310000C48091D0860081F006820F48020091F90
:100320000860002005490C3108604FF00060024968
:10033000803908607047000088ED00E00038024016
:10034000FFFFF6FE103000241C48006840F001005A
:100350001A49086019481430006840F48070174941
:10036000143108601648006840F003001449086022
:100370000020C86011483038006840F001000F4983
:10038000303908600F48806840F2014108430D4948
:1003900088600846406840F0007048600846006980
:1003A00040F0030008610020C86248630648006806
:1003B000064908430349C1F8040370473038024036
:1003C000000002400020014004230140000F030010
:1003D000FFF7BAFF26E01448806814490843124921
:1003E000886000BF1048006800F010000028F9D0B5
:1003F0000D48C06C0E49086000BF0B48006800F053
:1004000002000028F9D000200A49086004E00948E9
:100410000068401C074908600648006849F64041EA
:100420008842F4DDD7E700000020014001000040D1
:1004300000000020040000204FF04070E1EE100AA0
:10044000704700006404000800000020080000005D
:10045000C40100086C0400080800002060060000C9
:0C046000E00100080000000000000000A7
:040000050800018965
:00000001FF
