:020000040800F2
:1000000068060020290200083102000833020008B7
:10001000350200083702000839020008000000001D
:100020000000000000000000000000003B0200088B
:100030003D020008000000003F02000841020008E5
:10004000430200084302000843020008430200087C
:10005000430200084302000843020008430200086C
:10006000430200084302000843020008430200085C
:10007000430200084302000843020008430200084C
:10008000430200084302000843020008430200083C
:10009000430200084302000843020008430200082C
:1000A000430200084302000843020008430200081C
:1000B000430200084302000843020008430200080C
:1000C00043020008430200084302000843020008FC
:1000D00043020008430200084302000843020008EC
:1000E00043020008430200084302000843020008DC
:1000F00043020008430200084302000843020008CC
:1001000043020008430200084302000843020008BB
:1001100043020008430200084302000843020008AB
:10012000430200084302000843020008430200089B
:10013000430200084302000843020008430200088B
:10014000430200084302000843020008430200087B
:10015000430200084302000843020008430200086B
:10016000430200084302000843020008430200085B
:100170004302000843020008430200080000000098
:10018000430200084302000800F002F800F03CF8C7
:100190000AA090E8000C82448344AAF10107DA45E2
:1001A00001D100F031F8AFF2090EBAE80F0013F0F8
:1001B000010F18BFFB1A43F001031847E0020000CB
:1001C00000030000103A24BF78C878C1FAD852075B
:1001D00024BF30C830C144BF04680C6070470000C1
:1001E0000023002400250026103A28BF78C1FBD840
:1001F000520728BF30C148BF0B6070471FB500F0E1
:1002000047F91FBD10B510BD00F031F81146FFF7DA
:10021000F5FF00F0E3F800F04FF803B4FFF7F2FF4A
:1002200003BC00F057F80000094880470948004720
:10023000FEE7FEE7FEE7FEE7FEE7FEE7FEE7FEE796
:10024000FEE7FEE704480549054A064B70470000F3
:10025000E502000889010008680000206806002007
:10026000680200206802002070477047704775469A
:1002700000F02CF8AE4605006946534620F0070012
:10028000854618B020B5FFF7DDFFBDE820404FF0F0
:1002900000064FF000074FF000084FF0000B21F070
:1002A0000701AC46ACE8C009ACE8C009ACE8C0093D
:1002B000ACE8C0098D46704710B50446AFF3008026
:1002C0002046BDE81040FFF7A8BF00000048704777
:1002D0000400002001491820ABBEFEE72600020002
:1002E000704700001448006840F47000124908602C
:1002F0001248006840F001001049086000200F49D2
:10030000083108600D4800680D4908400B49086035
:100310000C48091D0860081F006820F48020091F90
:100320000860002005490C3108604FF00060024968
:10033000803908607047000088ED00E00038024016
:10034000FFFFF6FE103000240A48006840F0080065
:10035000084908600848006840F0AA40064908605B
:1003600005480C30006840F02A4003490C31086011
:100370007047000030380240000C02401548006809
:1003800040F010001349086012481438006840F02B
:1003900002001049143908600F48006840F400401A
:1003A0000D4908600C480830006840F480400A4954
:1003B00008310860081D006840F40040091D08600D
:1003C00005482030006840F0E040034920310860D3
:1003D000704700004438024000040240FFF7B4FFB9
:1003E000FFF7CCFF00F032F829E01548C06840F074
:1003F00004001349C86000BF1148006800F4007091
:100400000028F9D000BF0E48006800F02000002846
:10041000F9D00B4840680B490870094840683128FA
:1004200006D10948006840F470400749086003E0BD
:100430000548006804490860C02001490860D4E705
:100440000010014000000020140C02400F48C0685A
:1004500040F400500D49C8600846806840F283614E
:1004600008430A4988600846C06840F00400C86034
:100470000846406940F20131084304494861084692
:10048000C06820F48040C860704700000010014040
:100490004FF04070E1EE100A70470000BC04000805
:1004A0000000002004000000C4010008C00400088F
:1004B0000400002064060000E001000800000000C5
:040000050800018965
:00000001FF
