:020000040800F2
:1000000068060020290200083102000833020008B7
:10001000350200083702000839020008000000001D
:100020000000000000000000000000003B0200088B
:100030003D020008000000003F02000841020008E5
:10004000430200084302000843020008430200087C
:10005000430200084302000843020008430200086C
:10006000430200084302000843020008430200085C
:10007000430200084302000843020008430200084C
:10008000430200084302000843020008430200083C
:10009000430200084302000843020008430200082C
:1000A0004302000849030008430200084302000815
:1000B000430200084302000843020008430200080C
:1000C00043020008430200084302000843020008FC
:1000D00043020008430200084302000843020008EC
:1000E00043020008430200084302000843020008DC
:1000F00043020008430200084302000843020008CC
:1001000043020008430200084302000843020008BB
:1001100043020008430200084302000843020008AB
:10012000430200084302000843020008430200089B
:10013000430200084302000843020008430200088B
:10014000430200084302000843020008430200087B
:10015000430200084302000843020008430200086B
:10016000430200084302000843020008430200085B
:100170004302000843020008430200080000000098
:10018000430200084302000800F002F800F03CF8C7
:100190000AA090E8000C82448344AAF10107DA45E2
:1001A00001D100F031F8AFF2090EBAE80F0013F0F8
:1001B000010F18BFFB1A43F0010318478402000027
:1001C000A4020000103A24BF78C878C1FAD85207B8
:1001D00024BF30C830C144BF04680C6070470000C1
:1001E0000023002400250026103A28BF78C1FBD840
:1001F000520728BF30C148BF0B6070471FB500F0E1
:1002000019F91FBD10B510BD00F031F81146FFF708
:10021000F5FF00F009F900F04FF803B4FFF7F2FF23
:1002200003BC00F057F80000094880470948004720
:10023000FEE7FEE7FEE7FEE7FEE7FEE7FEE7FEE796
:10024000FEE7FEE704480549054A064B70470000F3
:10025000E502000889010008680000206806002007
:10026000680200206802002070477047704775469A
:1002700000F02CF8AE4605006946534620F0070012
:10028000854618B020B5FFF7DDFFBDE820404FF0F0
:1002900000064FF000074FF000084FF0000B21F070
:1002A0000701AC46ACE8C009ACE8C009ACE8C0093D
:1002B000ACE8C0098D46704710B50446AFF3008026
:1002C0002046BDE81040FFF7A8BF00000048704777
:1002D0000400002001491820ABBEFEE72600020002
:1002E000704700001448006840F47000124908602C
:1002F0001248006840F001001049086000200F49D2
:10030000083108600D4800680D4908400B49086035
:100310000C48091D0860081F006820F48020091F90
:100320000860002005490C3108604FF00060024968
:10033000803908607047000088ED00E00038024016
:10034000FFFFF6FE103000241248006920F0010083
:100350001049086110480068401C0F4908600846B1
:100360000068B0F57A7F06D10C48006840F4704010
:100370000A4908600DE008480068B0F5FA6F08DB2C
:100380000648006820F470400449086000200249D3
:10039000086070470000014000000020140C02407B
:1003A0000120114908601920002809DB00F01F0214
:1003B000012191404209920002F1E022C2F80011AD
:1003C00000BF0020094988620948C8620846C06821
:1003D00040F2011108430549C8600846006840F032
:1003E00001000860704700004438024000000140EE
:1003F000803801000A48006840F008000849086099
:100400000848006840F0AA400649086005480C30DA
:10041000006840F02A4003490C3108607047000032
:1004200030380240000C0240FFF7BAFFFFF7E2FF4E
:1004300000BFFEE74FF04070E1EE100A7047000089
:10044000600400080000002004000000C40100084F
:10045000640400080400002064060000E0010008B5
:040460000000000098
:040000050800018965
:00000001FF
